:020000040800F2
:10000000F8FF042421050008AF7C05089D7C050845
:10001000B17C0508BD7C0508C97C0508000000000E
:10002000000000000000000000000000D57C050872
:10003000D77C050800000000D18C0508098D050853
:10004000D1020008B57D0508C77D0508CD7D0508EE
:10005000A1080608D1020008497D05084F7D050862
:10006000557D05085B7D0508617D05085DB00508C7
:100070006DB005087DB005088DB005089DB0050878
:10008000ADB00508BDB00508D102000881D905084A
:10009000D102000887D90508D1020008677D05084C
:1000A000E17D0508E77D0508ED7D0508F37D050880
:1000B000F77D0508FD7D0508037E0508A37E05087C
:1000C000A97E0508AF7E0508B57E050865C0050850
:1000D00071C00508637E0508697E05086F7E050806
:1000E0008B7D0508BB7D0508000000002D7E0508FE
:1000F000337E05084B7E0508457E0508CDB0050812
:10010000D1020008C9110608097E0508D1020008BD
:10011000757E05087B7E0508217E0508277E05087B
:10012000DDB00508EDB00508FDB005080DB1050806
:100130001DB10508D1020008C17D0508D1020008E3
:1001400000000000000000000000000000000000AF
:100150002DB105083DB105084DB10508817E0508A2
:10016000D1020008D1020008D1020008D102000823
:10017000E57C0508D97C0508D102000800000000D4
:10018000D1020008D1020008877E05088D7E05088F
:100190007DC00508D1020008D1020008D102000884
:1001A000D1020008D1020008D102000800000000BE
:1001B000D1020008D1020008D1020008D1020008D3
:1001C000D1020008D1020008000000000000000079
:1001D0000000000000000000D10200080000000044
:1001E000000000000000000000000000000000000F
:1001F0000000000000000000D1020008D102000849
:10020000D1020008D102000800000000D10200085D
:10021000517E0508577E05085D7E0508D10200085D
:10022000D102000800000000D10200080000000018
:10023000D1020008D102000800000000D10200082D
:10024000D1020008D1020008D1020008D102000842
:10025000D1020008D1020008D1020008D102000832
:10026000D1020008D1020008D1020008D102000822
:10027000D1020008D10200089F7E0508000000009E
:10028000D1020008D1020008D1020008D102000802
:1002900000000000D1020008D102000800000000A8
:1002A00000000000D1020008D1020008937E05087A
:1002B000997E0508D1020008D1020008D102000889
:0C02C000D1020008D1020008D1020008A1
:1002D000FEE70000204AD2F8883043F47003C2F8E9
:1002E00088301E4A136803F00F03062B05D81368E5
:1002F00023F00F0343F007031360194B1A6842F011
:1003000001021A6000221A61164A19680A4013494C
:100310001A600A68120705D50A6822F00F0242F037
:1003200007020A60002210499A61DA611A62996232
:100330000E49D9620E4919635A639963DA631964E5
:100340005A64196821F4802119601A6643F2D202B6
:10035000084B1A60704700BF00ED00E0002000521B
:10036000004402587FEDF6EA000202020000FF019D
:100370008002010100400052F0B5CFB020220021E0
:10038000614C05A847F08AFD4C2200210DA847F0DA
:1003900085FDB822002120A847F080FDE36823F006
:1003A0000403E36063689A04FCD549F061FB42F200
:1003B0000203984248D9554BD3F8F42042F0020288
:1003C000C3F8F420D3F8F43003F002030193019B47
:1003D00000230293A36923F44043A361A36903F4B8
:1003E00040430293029B484A93699B04FCD5212019
:1003F0000121022405250D903F2013910022059034
:100400006E201A91042140234FF480371F920E97DB
:100410000A93CDE91850CDE91B1403200821CDE93A
:100420000602CDE91023CDE91D124FF480620DA81C
:10043000CDE91644CDE90813CDE90B234DF008FDB5
:1004400070B1334857F038F800230393A36943F49D
:100450004043A361A36903F440430393039BC2E7B2
:1004600050232C4A302631903F9034902295489763
:10047000CDE923348023CDE927304FF40063CDE963
:100480002F304FF4401341930023CDE92023202344
:10049000CDE9290520A83393CDE92544CDE92B6486
:1004A000CDE92D544EF054FA08B11B48CAE7192182
:1004B000199B05A84B431899B3FBF1F3B3FBF6F274
:1004C00006FB12321A99003AB3FBF1F118BF012270
:1004D00058F03AFD08B11148B4E70C4B1A6842F0E5
:1004E00080021A60D3F8F42042F00202C3F8F4202C
:1004F000D3F8F43003F002030493049B49F0C6FAE6
:100500004DF09EFC4FB0F0BD004802580044025828
:100510007430060800000F0286300608A030060876
:100520000446DFF82CD00B490B4A0C4B03E051F882
:10053000040B42F8040B9A42F9D300200849094AF7
:1005400001E041F8040B9142FBD3204657F03EB93D
:10055000F8FF0424B42F080800000024A40000249D
:10056000A4000024A4A1002440F8044B40F8045B3C
:1005700040F8046B40F8047B40F8048B40F8049B7F
:1005800040F804AB40F804BB40F804CB40F804DB6F
:1005900068467047024B5A690260586100207047F4
:1005A000A4000024024B5A6912685A61704700BFC8
:1005B000A4000024024B9A69C0E9002198617047A9
:1005C000A4000024044A93691968916110B15A6823
:1005D00018461047704700BFA400002438B50446F1
:1005E000044DAB690BB1A34200D338BD0120FFF726
:1005F000E9FFF6E7A4000024C46005614661876155
:10060000C0F81C80C0F82090C0F824A0C0F828B022
:10061000C0F82CD080ED0C8B80ED0E9B80ED10ABE4
:10062000C0F808E0FFF7B6BF124D6C6908B50CB909
:1006300057F0B8F860602046FFF7D0FF23686B6181
:100640002046C468056946698769D0F81C80D0F8DF
:100650002090D0F824A0D0F828B0D0F82CD090ED7D
:100660000C8B90ED0E9B90ED10ABD0F808E00120C4
:10067000704700BFA400002410B50021044600F01C
:1006800007FB18B914B120460DF0C2FC10BD0021C3
:1006900000F0FEBA10B50121044600F0F9FA18B9CD
:1006A00014B120460DF0B4FC10BDFFF7E5BF10B546
:1006B00001220C4600F002FC18B914B120460DF0DE
:1006C000A7FC10BD00F0FABB00F0BABB484308B568
:1006D0000830FFF7DCFF40B1044A936A03B11860A9
:1006E0000021C0E900139062083008BDA400002476
:1006F000034678B153F8042C083812B153F8081C9B
:10070000116053F8083C13B15A6000F099BB024BDA
:100710009A62FAE7704700BFA40000242DE9F04177
:100720004FF0030C0025294CD4F8AC6200210131B4
:1007300043189A0803F00303B25C5B0042FA03F328
:1007400003F00303022BF2D0D4F8B832090103EB13
:1007500000104FEA910E69B300EB8E0E03681A0782
:1007600025D1D4F8B822991A9A424FEA9116C1F3CA
:1007700001124FEA11111AD8D4F8BC7252009F42EC
:1007800015D9D4F8AC820CFA02F318F8067047FABF
:1007900002F23B4302F00302012A08D13F2D08F880
:1007A000063004EB45030CD80135A3F8CC12043015
:1007B0007045D3D145B1013D04EB4503B3F8CC02FC
:1007C000B2E7C4F8C822F2E7BDE8F081A400002433
:1007D00030B51C4CD4E9AD53C01A0123C109C0F394
:1007E00002124FEA101C03FA02F26B5C4FEA9C0EF5
:1007F00023EA02036B548309D4F8C0220325B2EB29
:10080000901FD4F8AC020CF0030288BFC4F8C032C9
:10081000C15C52000CF1010C05FA02F30CF003026A
:1008200021EA0301530000F80E104FEA9C0ED4F8A1
:10083000AC0210F80E1041FA03F303F00303022B8D
:10084000E7D030BDA400002421F00F010A1A013ABC
:1008500038B5D200134D144C0346A5FB0252C4F820
:10086000BC12520AC4F8AC02A1EB8211C4F8B02247
:10087000C4F8B812910001320731134402EBD102DF
:100880000021C4F8B43247F009FB002301214FF0E6
:10089000FF322381A4F84C13C4E9B033C4E9D43245
:1008A00038BD00BFF32C23FAA4000024024A1389A8
:1008B00001331381704700BFA4000024024A13894A
:1008C000013B1381704700BFA4000024024B18892C
:1008D000003818BF01207047A4000024F8B51C4D53
:1008E000002203272B8905F1080405F50076C5F8D9
:1008F00050230133C5F8C8222B8154F8043F1A074E
:1009000019D1D5F8B822981A93424FEA901CC0F337
:1009100001124FEA10100ED3D5F8BC1252008B42D0
:1009200009D2D5F8AC1211F80CE04EFA02F303F03C
:100930000303012B02D0A642DFD1F8BD07FA02F271
:1009400042EA0E0201F80C20FFF7E8FEF3E700BFD1
:10095000A400002499B32DE9F0410F46051F00249F
:10096000174E4FF0030855F8043F01341A0719D108
:10097000D6F8B822981A9A424FEA901CC0F3011296
:100980004FEA10100ED8D6F8BC125200994209D97D
:10099000D6F8AC1211F80CE04EFA02F303F00303A0
:1009A000012B03D0A742DED1BDE8F08108FA02F2A4
:1009B00042EA0E0201F80C20FFF7B0FEF2E77047A2
:1009C000A40000242DE9F04F644C83B0D4F8C83261
:1009D000002B00F0B680D4F8B002002680008146DB
:1009E000C4F8C862002849D0002707F003034FEA83
:1009F000970CD4F8AC1205465A0011F80C3013418C
:100A000003F00303032B44D001378742EDD3D4F81E
:100A1000C832002BE3D1D4F8C432AB4238BF5D1CDE
:100A2000002D00F099804FF000090323CE464F4679
:100A300004E0012A41D00137AF421FD0D4F8ACC244
:100A40004FEA970807F003061CF808100CEB970014
:100A5000760041FA06F202F00302022A28D0032AA5
:100A6000E7D10222B94601374FF0000E02FA06F62E
:100A7000AF4221EA06010CF80810DFD123890022D9
:100A8000C4F8C492013BC4F8C022238103B0BDE87E
:100A9000F08F38460137FFF741FED4F8B0028000EE
:100AA000B8420546A1D8D4F8C832002B97D1B2E796
:100AB000BEF1000F3DD1B946BDE7D4F8B4224FEAEC
:100AC000D70B07F0070A12F80BC002EBD7024CFA5B
:100AD0000AFE1EF0010F2CD0D4F8B812380151F8DC
:100AE00000E001EB0710BEF1000F15D06A46B221FD
:100AF0000CF036FC009A032342B10DF009FDDDE94C
:100B000000010DF0D5FC0DF019FD0323D4F8B4124B
:100B100001EB0B0211F80BC0012101FA0AFA2CEAD1
:100B20000A0C82F800C0D4F8AC2202EB080012F8DC
:100B3000081003FA06F64FF0010E21EA06010170D3
:100B400079E7D4F8B052D4F8C432AD00AB4238BF24
:100B50005D1C002D7FF467AFA9468FE7A400002439
:100B6000044B00211A89C3F8C81201321A81FFF719
:100B700029BF00BFA4000024444A00232DE9F04F00
:100B8000D2E9AE41D2E9ABE2091B83B04FEA820859
:100B90009C46016099461E461F461C461A46019314
:100BA000C0E90133C0E90333C0E905339EF800A072
:100BB0005B004AFA03F303F00303012B44D0022B3A
:100BC00058D0002B4FD0013290450CBF012100219D
:100BD0003ED093081EF803A002F003035D004AFA1A
:100BE00005F515F0030B14BF0D4641F00105002D6E
:100BF00044D1BBF1010FDBD129465D46012C2ED03B
:100C0000022C02D14369013343614C4501D9A1460D
:100C100084616DB1674501D9BC46C76039B1019B9C
:100C200036011B01C0E9016303B0BDE8F08F0F4638
:100C300093081EF803A002F003035B004AFA03F3D3
:100C400003F00303012BBAD101361C464660BAE714
:100C5000012B14BF0D4641F00105012CD0D10369D1
:100C600001330361D1E7019901371C46013101913C
:100C70008160A8E7013601344660A4E7BBF1010FAB
:100C800014BF0D4641F00105B8E700BFA4000024E1
:100C90000F302DE9F843060959D0684C2389002B01
:100CA00055D1B4F84C330D46002B0CBF4FF0010E5C
:100CB0004FF0000E4FD1D4F8C002D4F8B072B84251
:100CC00038D2D4F8ACC2411E002261441AE001328D
:100CD00096424FD913F00C0F1ED10132964240F2CA
:100CE000A48013F0300F1CD10132964240F2A08054
:100CF00013F0C00F1AD10132964240F29C800130AD
:100D0000B84217D211F8013F13F0030FDFD013F0F0
:100D10000C0F4FF00002E0D013F0300F4FF0000244
:100D2000E2D013F0C00F4FF00002E4D001300022F7
:100D3000B842E7D3BEF1000F09D15DF049FED4F807
:100D4000C002D4F8B0724FF0010EB842B9D30023FC
:100D50001846BDE8F883D4E9D4239A42ABD35DF0BA
:100D600037FED4F8C002D4F8B072B842EFD24FF0D8
:100D7000010EA6E78000811A012A01F1010703D1C3
:100D8000431C9B08C4F8C032D4F8C4324FEA970E13
:100D90000231834238BF03468842C4F8C43207F0A8
:100DA00003034FEA43084FF0010303FA08F31CF86A
:100DB0000E8043EA08030CF80E3013D34FF00208FC
:100DC00001F003034FEA910CD4F8ACE201315B006F
:100DD0001EF80C90884208FA03F343EA09030EF860
:100DE0000C30EDD2D4F850331201D4F8B88200217F
:100DF00033443E01C4F8503308EB0713184647F05C
:100E00004DF8EA070346A3D50022D4F8B402F90846
:100E100007F0070748F80620012202FA07F7425CAC
:100E2000174347541846BDE8F88380000130A2E715
:100E3000800002309FE7800003309CE7A40000247C
:100E4000034B1A8912B908B1FFF7C2BC704700BF43
:100E5000A400002410F00F021BD11749D1F8B832BA
:100E6000834217D810B4D1F8BC4284420DD9C31ABA
:100E7000D1F8AC42C3F3011099091B09615C400031
:100E8000014101F00301012906D010465DF8044B31
:100E9000704700221046704701329918880801F007
:100EA0000301205C490040FA01F101F0030102292D
:100EB000F2D01201E9E700BFA40000242DE9F84FA9
:100EC0000F460646002800F0AD80002953D05A4D49
:100ED0002C89002C53D1D5F8B81207F10F0ED5F894
:100EE000B0C2411A4FEA1E1E4FEA8C0A0B09581C69
:100EF000B0EB8C0FA44680F09B80D5F8AC924FF0FD
:100F00000108840800F0030B19F804404FEA4B0B6A
:100F100044FA0BF404F00304022C34D02CB90CF185
:100F2000010C0CEB080474452FD3C6451FD030D3F9
:100F3000C444F4454CD212B3D5F8B422C90903F025
:100F400007033846515C194101F00101FFF7A0FE8B
:100F50000446A0B14FEA0812314646F05BFF2B89E8
:100F600033B93046FFF734FC2046BDE8F88F3446ED
:100F70002046BDE8F88F304B1C89002CF2D00024AD
:100F80002046BDE8F88F08F1010801308245B8D14C
:100F9000CBE79E444FF0030C4344704600F003023D
:100FA0008708D5F8AC1201305200CC5D98420CFA9B
:100FB00002F224EA0202CA55F0D1D5F8C0324FEA53
:100FC0009E02B3EB9E0FD2D93446C5F8C022CFE7BC
:100FD00003EB0E014344994210D94FF0020C03F089
:100FE00003029808D5F8AC4201335200275C9942BD
:100FF0000CFA02F242EA07022254F0D1D5F8C432C8
:10100000AEEB0802344606EB08108B424FEA0212A0
:1010100038BF0B460021C5F8C43246F03FFF2046DA
:10102000BDE8F88F01463846BDE8F84FFFF730BEFF
:101030004FF0010879E700BFA400002410B58AB082
:10104000044603A8FFF798FD039A0949DDE9043037
:101050000090204600F05AFF2046069C079ADDE9E2
:101060000831CDE90014034900F050FF0AB010BD6B
:10107000B4300608D83006082DE9F047DFF864A13F
:1010800006464B49DAF8B82200F040FFDAF8B02201
:10109000920079D00024474FDFF84C91DFF84C8163
:1010A0000EE0012D40D02E224349304600F02EFFA5
:1010B0000134DAF8B032B4EB830F4FEA830263D223
:1010C00014F03F0510D004F003056D00A308DAF812
:1010D000AC22D35C43FA05F505F00305022D21D0BF
:1010E000032DDED16D22DFE7DAF8AC12A4464FEA19
:1010F0009C000CF00303085C5B0040FA03F39B07C1
:1011000003D10CF1010C9445F1D3ACEB04027F2A1E
:101110002ED804F003056D0022013946304600F058
:10112000F5FED3E73D22BFE7DAF8B8222301D25813
:1011300042452FD0214B9A422ED0214B9A422FD09C
:10114000204B9A422AD0204B9A4227D01F4B9A42DA
:1011500028D01F4B9A4225D01E4B9A4226D01E4BB8
:101160009A4221D01D4B9A420CBF4D2268229BE728
:101170009209494630462CF03F0400F0C7FEDAF8E9
:10118000B032B4EB830FC7D330461549BDE8F04702
:1011900000F036BB542287E74C2285E7532283E7D1
:1011A000442281E741227FE742227DE746227BE716
:1011B00020310608583106086031060870B7060865
:1011C00044AE0608F4C2060884C1060814AB06083B
:1011D000C8AA060878B30608CCB3060824B90608DE
:1011E0001C310608A40000243C31060844C406084B
:1011F0000346054A506A1A6841688A4202D3521A65
:101200001A6070470068F7E7A4000024014441F227
:101210000553884204D398B2012838BF0120704793
:1012200003EB431310F8012B5340F2E7034B044A3E
:101230005A620022C3F80422704700BFA4000024B1
:10124000F41E07082DE9F04780460E46FFF7DEFF43
:10125000124B07465C6A0CB920461AE0D4F80C9091
:10126000002504F1180A4D4501D12468F3E72369EC
:1012700033F81530BB420ED163695B5DB3420AD1CE
:10128000324641465AF8250046F030FE18B96068EB
:101290002844BDE8F0870135E5E700BFA40000243D
:1012A0002DE9F84381460E46FFF7CCFF02460028A1
:1012B00040F08B80FF2E03D9454946480CF0D2F808
:1012C000454C751CD4F8040290B1D4E982132B4428
:1012D0008B4229D92944FFF7F5F90746D8B90246C8
:1012E000D4F80C12D4F80402FFF7ECF9C4F8047235
:1012F000802D2F4638BF80273846FFF7C8F9C4F83D
:101300000402D0BB2846FFF7C2F9C4F8040298BB18
:1013100028460CF07DFED4F808322B44C4F808327D
:10132000D4F80432002BE3D0D4F80C323146D4F890
:10133000047248461F442B44C4F80C32FFF766FF82
:1013400049464FF0000980463246384646F062FD75
:1013500007F80690636AD3E90253AB4225D36D00C8
:101360000A2D38BF0A25C5EBC5001830FFF78FF9E5
:1013700048B9C4F80402CBE72F460023C4F808722A
:10138000C4F80C32D0E700F11803626A03EB85035E
:101390000260036103EB450343615368D268C0F800
:1013A0000C901344C0E901356062636AD3E90321FC
:1013B0005B6921F81280911D9E54636A43F8217085
:1013C0005868D96802440131D9601046BDE8F883F5
:1013D00063310608A4B10608A400002410B5044631
:1013E00046F096FD01462046BDE81040FFF758BF85
:1013F00007B5019001A8FFF7FBFE019A036933F8D6
:10140000120003B05DF804FB07B5019001A8FFF7D7
:10141000EFFE019B4269D05C03B05DF804FB07B5A9
:10142000019001A8FFF7E4FE019B063350F823006A
:1014300003B05DF804FB13B5019001A80C46FFF75B
:10144000D7FE019B4269D25C063350F8230022602C
:1014500002B010BD2DE9F8431D460023074688461B
:10146000036016460B6013602B60154BDFF8549039
:101470005C6A0CB14C4505D12B68326813442B6073
:10148000BDE8F8833B6801333B60E268D8F8003080
:1014900013446269C8F80030E368D1188A4207D360
:1014A0002046FFF7D7FC2B68246818442860E0E743
:1014B000336812F8010B013303443360EEE700BFD9
:1014C000A4000024F41E07082DE9F8430D4B0E4F2D
:1014D0005C6ADFF83880DFF838900CB1BC4201D18B
:1014E000BDE8F88304F11805E36805EB8306B5420F
:1014F00001D32468F1E755F8042B4146484600F033
:1015000005FDF4E7A4000024F41E0708683106086E
:101510009095060830B50023202411F8012F0AB950
:10152000027030BD120600F101051ED50BB104702A
:1015300028460B78114A03F07F0363B9013A12F889
:10154000013F0546013013F0800F0BD003F07F03FD
:101550002B700123E1E712F9015B002DFBDA013B5F
:10156000DBB2EAE700F8013CE9E7012B04BF0470B5
:1015700028460B7800F8013B0223CEE76F310608BE
:1015800038B54468054603682144994210D9037B65
:101590001BB1002107480BF065FF01F110048068C2
:1015A00024F0070408342146FFF781F82C60A86076
:1015B00038BD00BFA4B1060870B504460E461146FA
:1015C0001546FFF7DDFF31462A46D4E901301844BD
:1015D00046F050FC62682A44626070BD70B546688F
:1015E0000446B14228BF31460D460121FFF7C8FF2E
:1015F000A368681C721B5919184446F03BFC6368C9
:10160000A06801332844636070BD012938B538BF34
:10161000012104460025084621606560FFF72CF88B
:101620002573A06038BD38B505460C460131FFF77B
:10163000ECFF6C6038BD00230160C0E9013201237A
:101640000373704738B514460546FFF7DEFF024BBB
:101650002560636038BD00BFB9150008037B10B575
:10166000044613B98068FFF72FF80023A36010BD6C
:1016700013B501901020FEF7FFFF04460199FFF714
:10168000C4FF204602B010BD10B5044648B1037B2C
:1016900013B98068FFF718F82046BDE81040FFF73F
:1016A00013B810BD38B5037B04460D461BB10021AD
:1016B00006480BF0D7FE016880682944FEF7F7FF63
:1016C0002368A0601D441844256038BDA4B10608F5
:1016D00038B504460D46FFF753FFD4E901301D44E9
:1016E0001844656038BDD0E9002310B59A4204461D
:1016F00002D10121FFF7D6FF0021D4E90132D154F4
:10170000A06810BD10B50C460121FFF7E1FF047081
:1017100010BD7F29F8B50C46CEB204D80121FFF7E1
:10172000D7FF0670F8BD06F03F06B1F5006FC1F3B4
:10173000871546F0800607D265F03F050221FFF7C6
:10174000C7FF46700570EDE705F03F05B1F5803F36
:10175000C1F3073745F0800508D267F01F07032162
:10176000FFF7B6FF457007708670DBE7A40C07F043
:101770003F07042164F00F0467F07F07FFF7A8FF1D
:10178000857004704770C670CCE713B504460846F0
:10179000019146F0BDFB01990246204602B0BDE82A
:1017A0001040FFF709BF10B51446FFF717FF04708C
:1017B00010BD10B51446FFF711FF047010BD43684B
:1017C0008B422CBF591A00214160704738B504463E
:1017D0001546084662688A4203D929448A4201D8DC
:1017E000606038BDA368521A1844194446F042FBA1
:1017F0006268521B6260F4E70846114647F0D6BAA9
:1018000037B505460846019146F082FB044620B1F3
:1018100002466B68019928689847204603B030BD9E
:101820002DE9F74F89469DF8301017460D9A11F0B3
:10183000DF0F0646A2EB07023DD030290CA8254950
:1018400013BF80464FF0100A88464FF0010A13F08C
:10185000800535D002EBD2746510A2EB6404002D34
:1018600035DDAB46DA45524673684146A8BF5A4655
:10187000306801929847019AABEB020BBBF1000F65
:10188000F0DC2FB13D4473683A46494630689847CA
:10189000002C0CDD2544A245574673684146A8BF7D
:1018A00027463068E41B3A469847002CF3DC28466C
:1018B00003B0BDE8F08FDFF820804FF0100AC6E7D4
:1018C00013F0010401D11546C9E71446D9E70025F4
:1018D000D7E700BFA9950608989506082DE9F043BB
:1018E000064689B00020119D9DF84880139F8DF811
:1018F0000F000AB381421ADA2D2249428DF80F20D7
:10190000109A08AC0DF11009A2F10A008E46B1FB45
:10191000F3FC03FB1C126146092A8CBF12183032FB
:1019200004F8012D4C450ED07345EFD90BE0A80704
:1019300027D52B228DF80F200029E1D130230DF17E
:101940001F048DF81F3015F040099DF80F301CD092
:1019500023B301222B460DF10F013046013FCDE9A3
:101960000082FFF75DFF814608AA2B4621463046DC
:10197000121BCDE90087FFF753FF484409B0BDE8CB
:10198000F0836A07D8D52022D4E7002BECD004AA34
:101990009442E9D904F8013C013CE5E79946E3E7C4
:1019A0002DE9F04F93B01E4681460C469DF87430E9
:1019B00092461C9D0793CB07DDE91E870BD4880751
:1019C00003D109687E4B994205D020460DF0CAFB31
:1019D000400040F0010415F0810306D1079A302A37
:1019E00003D1B845B8BFB8461F4620460DF1280BB5
:1019F00010F0C6FE002818DBA90712D52B230DF125
:101A000029018DF82830EB06F6B21DD5BAF1020F88
:101A10000DD130200B4603F8020B701C487019469C
:101A200012E06A0701D52023E9E75946EBE7BAF14E
:101A3000080F61D1A8054FF030030B7049BF06F1C4
:101A40000E0301314B700231002315F0200FA1EB82
:101A50000B020EA80B700CBF19462C21012F069209
:101A6000C8BF45F040050B9010208DF8273015F0C9
:101A70004002CDE90C030592CDE9026146D00DAAE2
:101A80000CA90BA8CDE900A3234610F051FD037863
:101A900082462D2B06D18DF8273000F1010A0D9BCF
:101AA000013B0D93012F40F384800D9C059BBC42AC
:101AB000B8BF3C462BB19DF8273003B10134069BDB
:101AC0001C44A0452DDD15F00103A8EB040429D129
:101AD00026461C4625F001054EB1202301963949C2
:101AE0004846009300231A46FFF79AFE0646059BD8
:101AF000D3B9302307933AE0BAF1100FA4D13020C4
:101B00000B4603F8020B06F1170087E70AAB0DAA94
:101B10000CA90BA8CDE900A3234610F009FD8246CD
:101B2000C0E700240026D5E7302307939DF827302F
:101B30005BB1002301220DF12701484608F1FF386F
:101B4000CDE90032FFF76CFE0644069B63B100232B
:101B5000012259464846CDE90032069AFFF760FE59
:101B6000069B0644A8EB0308012FD8BF4746079BF6
:101B700051460D9A484600932B460197FFF750FEB9
:101B800006444CB120230F4948460194009300239A
:101B90001A46FFF745FE06440B980EAB984201D05B
:101BA000FEF792FD304613B0BDE8F08F00242646C4
:101BB000BCE7059B002BF9D11C461E464746D6E7DD
:101BC00020B60608D29607082DE9F04316468BB0DA
:101BD00007469846B207DDF8489040D416F0040F47
:101BE0000CBF002320230A4600932021139B02A848
:101BF0000AF01AFAF305044610D5431C1F2B0DD822
:101C000000F1280200210DEB0204252204F8202C0B
:101C100003F128021C466A4402F8201C16F0400515
:101C20001FD09DF808302F2B4FF000031BD8012246
:101C300002A9384609F1FF39013CCDE90032FFF72E
:101C4000EFFD0DF109010546334622463846CDE940
:101C50000089FFF7E5FD28440BB0BDE8F0832B2396
:101C6000C1E702A9F0E702A91D46EDE72DE9F04F13
:101C7000074689B014460025DFF88C820B461E46C5
:101C800013F8012B92B9B14213D30B78002B00F05B
:101C90003481013120234FF0000A084610F8012B4F
:101CA00082B94FF000094FF00A0C2AE0252AE6D14C
:101CB000E9E7A6EB01097B6838684A464D44984736
:101CC0003146E2E72D2A03D14AF0010A0146E4E752
:101CD0002B2A02D14AF0020AF8E7202A02D14AF060
:101CE000040AF3E7212A02D14AF0080AEEE7302A73
:101CF000D7D14AF0400A1346E8E70CFB0929A9F1BD
:101D000030090E4611F8012BA2F130000928F4D950
:101D10002E2A33D172782A2A0FD00A464FF00A0CA5
:101D20000021164612F801BBABF13000092807D894
:101D30000CFB01BBABF13001F3E7023654F8041B96
:101D400021EAE17B32786C2A08BF0136317800291C
:101D500000F0D38078295FD8572912D8472959D85D
:101D6000442959D907345246384624F00704CDE9AE
:101D7000009BB4EC020BFFF727FF5FE04FF0FF3B47
:101D8000E0E7A1F15802202A46D801A050F822F03D
:101D9000CB1E0008191E0008191E0008191E000895
:101DA000191E0008191E0008191E0008191E000837
:101DB000191E0008191E0008271E0008491E0008E9
:101DC000AF1E0008651D0008651D0008651D0008A0
:101DD000191E0008191E0008191E0008191E000807
:101DE000191E0008191E0008191E0008191E0008F7
:101DF000EB1E00085D1E0008191E0008871E000863
:101E0000191E0008CB1E0008191E0008191E000824
:101E1000CB1E0008502968D07B6801223146386803
:101E2000013598470BE054F8042BCDE900395346AF
:101E30003AB1042233493846FFF7F2FC0544711CDD
:101E40001CE705224146F6E754F8042B07A98DF854
:101E50001C200122CDE900395346ECE707A954F8CC
:101E6000040B0493FFF7E7FABBF1FF3F0146049B25
:101E700004D0079A934538BFCDF81CB0079ACDE936
:101E800000395346D7E754F8041B059308460491DC
:101E900046F03EF8BBF1FF3F0246DDE9041302D0F5
:101EA000584528BF5A46CDE900395346C3E7CDE926
:101EB000023961230122CDF804A000930A2354F8CB
:101EC000041B3846FFF70AFDB8E74A1C21F00F0152
:101ED000CDF804A002F006020F39CDE90239C9B2EB
:101EE000C2F1100300910022E9E7CDE90239612334
:101EF000CDF804A000931023F5E7284609B0BDE80B
:101F0000F08F00BF84950608899506080EB403B5C6
:101F100003AA52F8041B0192FFF7A8FE02B05DF875
:101F200004EB03B0704790F90010024603780029D3
:101F300001DB1846704703F07F004023184206D1AA
:101F400012F8013F03F0C001802904D0704720EA55
:101F500003005B08F2E703F03F0343EA8010EFE77A
:101F6000431C18460133027802F0C002802AF8D0E0
:101F7000704703460020994200D8704711F8012DA0
:101F800002F0C002802A18BF0130F4E70144034682
:101F9000002099421A4600D870471278013302F0A7
:101FA000C002802A18BF0130F3E700007F289DBFE0
:101FB000024B185CC0F3400000207047BA95060839
:101FC0007F289DBF024B185CC0F3C0000020704703
:101FD000BA9506087F289DBF024B185CC0F38000AD
:101FE00000207047BA9506087F289DBF024B185CF9
:101FF000C0F3801000207047BA9506087F2809D8E2
:10200000064B1B5C13F00C0F06D1A0F15F03584286
:10201000584170470020704701207047BA95060864
:102020007F289DBF024B185CC0F300100020704752
:10203000BA9506087F289DBF024B185CC0F340107C
:1020400000207047BA95060808B50246FFF7E8FF7A
:1020500000B12032104608BD08B50246FFF7EAFF7E
:1020600000B1203A104608BD3038092884BF20F05E
:1020700020000738704701440246002010B5E524CF
:10208000914203D8B0FA80F0400917E012F8013B02
:1020900030B103F0C003802B11D10138C0B2EFE79B
:1020A000BF2B09D9F72B09D8D80800F0060044FA4D
:1020B00000F000F00300E3E71B06E1D510BD0020AF
:1020C000FCE7023981420B4603D31A880239002A01
:1020D000F8D00233181A40107047B2EB131F70B5D6
:1020E00005464FEA131615D9901B03F00F0401EBB8
:1020F000460102460E46012A31F8023B18BF3368FA
:10210000013A23FA04F39BB225F8023BF2D103B95A
:10211000013870BD0020FCE7F0B5059F0024D21BFC
:102120002646A74210D100EB470C002401EB4701E3
:10213000A24214D10CEB42031EB1012102332CF850
:102140001210181A4010F0BD31F8145033F814C0B2
:102150006544354420F814502E0C0134E1E731F881
:10216000145035442CF814502E0C0134E0E7F0B430
:10217000049F0025D21B2C46AF420BD100EB470633
:10218000002301EB47059A420FD106EB4201F0BC58
:10219000FFF797BF31F81560344433F81560A41B7E
:1021A00020F8154024140135E6E735F813100C44E7
:1021B00026F8134024140133E5E72DE9F043079C8A
:1021C0000239DDF828E0154684464FF6FF78A4EB87
:1021D0000209DDE9087655B900EB42011FB1012380
:1021E000023120F81230BDE8F043FFF76ABF31F842
:1021F000024F013D4444264405EB0904AC4296BF1E
:1022000033F8024B4FF6FF744444744486EA040EDC
:10221000360C17FA8EF74FEA144E2CF8027B3F0C5F
:10222000D9E7022938B538BF0221044680680D4637
:1022300018B12368B1EB930F07D96900FEF737FA9D
:102240002368A06065F39F03236038BD38B504465A
:102250000C20FEF711FA054623682278C3F39D008F
:1022600023F0030302F00102400013432B60636874
:102270006B60FEF701FAA8602268A168C2F39D02B4
:10228000520045F0C7FD284638BD994210B511D31C
:1022900013D800EB410002EB410209B9084610BD1A
:1022A00030F8023D32F8024D1B1B002B02DB04D13B
:1022B0000139F2E74FF0FF30F1E70120EFE710B509
:1022C000044638B18068FEF7FFF92046BDE81040AB
:1022D000FEF7FAB910BD38B50C4602210546FFF7E6
:1022E000A0FF002C2B78B5BF0122002261422146BD
:1022F00062F3000301222B70AB68023B23F8021F3C
:10230000090C104602F10102F8D1686038BD0023C3
:10231000C0E900338360704728B103789B0702D47B
:102320008068FEF7D1B9704738B505460C46496854
:10233000FFF777FF22782B78A86862F300032B70F1
:102340006368A1686B606268BDE83840520045F080
:1023500061BD0A4629B90178426062F3000101704B
:102360007047FFF7B8BF08B5FFF7D1FFBDE80840D9
:10237000FFF7EFBF920042F002020260002210B4A9
:10238000C0E901215DF8044B1946FFF7E2BFF8B53B
:1023900014461D469DF8187004210646FFF741FFBC
:1023A00022462B4627B1002D0CDA624265EB45032D
:1023B000317867F3000131700021716052EA030146
:1023C00002D1F8BD0027F3E7D6E901104C1C746078
:1023D00020F81120120C42EA03421B0CEEE72DE913
:1023E000F84353EC102B1E460378074610EE105AA4
:1023F000F20F62F30003037047F6F07313EA16421C
:1024000007D13B786FF300033B7000237B60BDE88E
:10241000F8839A42F5D0C6F30A52A2F2FF34002C98
:10242000EFDB04D10121BDE8F843FFF754BFA2F26E
:10243000EF38C6F31306B8F1000F46F48016B8BFA4
:10244000A2F57878332C4FEA28183FDCC4F1340227
:10245000A4F11403C4F1140406FA03F3D54026FAD8
:1024600004F4D6401D4325430024A1464146384686
:10247000FFF7D7FEC7F80480B9F1000F05D04FEA87
:1024800049020021B86845F009FD9CB105FA04F243
:10249000BB6823F81920C4F11003103409F10109B5
:1024A000A3F12002DD4006FA04F426FA02F2DE402F
:1024B000254315434B469845A9D0BA6822F81350D6
:1024C0002D0C013345EA0645360CF4E7A2F23343FE
:1024D0000C34002B04F00F04B8BFA2F224434FEADF
:1024E0002319C3E72DE9F8438F18C2F35B020446B2
:1024F0000D46511C9846089EFFF793FE2378294607
:102500001FFA86FC68F30003237000236360B9425E
:10251000084602D3401BBDE8F88302780131A2F1DE
:102520003003092B05D9A2F14103192B14D8A2F1CC
:102530003703B342EED2D4E901E0F0468146B8F168
:10254000000F10D100EB4E0213B1023220F81E3002
:10255000121A52106260DAE7A2F16103192BD9D87E
:10256000A2F15703E5E7B9F8002008F1FF3802FBB4
:102570000C3329F8023B1B0CE1E7F8B5044615467D
:102580001E46C1B1531E4FF0FF371E44E9002046DE
:102590000F310909FFF745FE237800216FF300038F
:1025A000616023704DB9D4E9011000EB4101FFF7E0
:1025B00088FD6060F8BD0127E8E700230F290ADCE9
:1025C0003278013D3E4402FA01F201F1080143EA8A
:1025D00002039BB2F2D162681039501C6060A0689F
:1025E00020F81230DEE738B50B780446057803F0A2
:1025F000010305F00100181A08D1D1E90132D4E92C
:102600000110FFF742FEEB0748BF404238BD884249
:1026100010B5044601D0FFF787FE23786FF300035F
:10262000237010BD884210B5044601D0FFF77CFE30
:1026300063683BB12378C3F30002C2F1010262F385
:102640000003237010BD88421FB5044601D0FFF778
:102650006BFE626862B901212046FFF7E2FD0123AB
:10266000A26813806360237843F00103237010E0B5
:102670002378D9070FD56FF30003A16823700123D6
:102680000846ADF80E3000930DF10E03FFF76FFD15
:10269000606004B010BD511C2046FFF7C2FD01234D
:1026A000D4E90121ADF80E30009308460DF10E0378
:1026B000FFF732FD6060D6E72DE9F8434B68054629
:1026C0000E46144603B12AB931462846BDE8F84300
:1026D000FFF72ABE02F10F014FEA111803EB1111A7
:1026E000FFF79FFD14F00F04A8684FF0000C08BF1F
:1026F0001024D6E90131C4F1100408EB030701EB03
:10270000430E194607F10042013A00EB42008146B0
:10271000E9B96FF001022CFA04F45343C218C45211
:10272000C8F1010302EB430308F1FF3218465200DF
:1027300045F0B4FB831E17B133F817209AB12B78FC
:102740006F60327862F300032B70BDE8F8833EF8C7
:10275000022D013942EA0C0C2CFA04F24FEA0C4C1F
:1027600029F80229D4E7013FE5E7F0B50E464968AC
:1027700085B00546144601B132B93146284605B048
:10278000BDE8F040FFF7D0BDFFF74BFD2346A8683A
:10279000D6E90121FFF7A1FC2B786860327862F35B
:1027A00000032B70DB072DD5002322097168ADF8DB
:1027B0000E30994201D093420FD1914222D9B36891
:1027C00004F00F0433F81220012303FA04F4013C4F
:1027D000224213D0ADF80E3008E0B76837F8137016
:1027E00057B101239142ADF80E30E8D8A968012312
:1027F00050B90B806B6005E00133DAE7BDF80E30AD
:10280000002BF3D105B0F0BD0246009308460DF150
:102810000E03FFF781FC6860F4E773B50C461646BB
:102820000546D2E90132D1E90110FFF72EFD00285B
:10283000BEBF234634461E46237861683278534033
:10284000DB071BD401312846FFF7EBFC7368A8684F
:102850000093B368D4E90121FFF75EFC6860237838
:102860006A68C3F30003002A0CBF002303F00103CE
:102870002A7863F300022A7002B070BD2846FFF781
:10288000D0FC7368A8680093B368D4E90121FFF70E
:102890006EFCE3E7F7B50D4616460446D2E9013271
:1028A000D1E90110FFF7F1FC0028BDBF2B463546EA
:1028B00001270027B8BF1E462B786968327853403D
:1028C000DB0714D501312046FFF7ABFC7368A06825
:1028D0000093B368D5E90121FFF71EFC60606268D0
:1028E000237882B962F30003237003B0F0BD204661
:1028F000FFF797FC7368A0680093B368D5E90121DE
:10290000FFF735FCEAE72A7802F00102002FE9D050
:10291000C2F10102E6E72DE9F04F15464A680E467E
:1029200085B06B6804469A423EBF0B462E461D4654
:1029300033787168DB0721D42B7813F001071DD1A0
:10294000FFF76FFCA068B6683B46D5E9011C9942C9
:102950000BD100EB4101FFF7B4FB237860606FF30C
:102960000003237005B0BDE8F08F36F813203CF863
:1029700013502A4020F813200133E8E701312046A4
:10298000FFF74FFC96F800A02B780AF00108D6F864
:1029900004C08AEA03074AF3000AA06803F00109A9
:1029A000FF4343F30003834607F0010E47F300079C
:1029B0009BB2BFB2009302971FFA8AF7D5E90112C2
:1029C0000197B768A1EB0C01A7F1020A67460391D2
:1029D000BFB900EB4C01BEF1000F03D0012302315F
:1029E00020F81C30FFF76DFB606033782A78C3F362
:1029F0000003C2F300021340227863F30002227046
:102A0000B0E73AF8021F013F019B5940039B8844FD
:102A1000D919B9429BBF32F8021B009B009959405B
:102A2000029B894408EA09014FEA19494FEA18480C
:102A300059401EFA81F14FEA114E2BF8021BC7E7ED
:102A40002DE9F84F16464A680D46044673689A42C7
:102A50003EBF0B4635461E462B786968DB0731D4EE
:102A6000327812F001072DD1FFF7DBFBA9686D6802
:102A70003A46D4F808C0D6E9013EED1A934212D185
:102A800001EB430100220CEB4303954214D103EB0D
:102A90004503A3EB0C035B10636023786FF3000323
:102AA0002370BDE8F88F31F812003EF81260304311
:102AB0002CF812000132E1E731F8120023F812007D
:102AC0000132E2E701312046FFF7ABFB2A78337889
:102AD000696802F00108AD6803F00109A06842F3DB
:102AE000000243F30003A5F1020C92B282469BB2AE
:102AF0000125D6E901E70E46AEEB010E46B900EB23
:102B00004101FFF7DEFA2378606043F00103C7E775
:102B10003CF802BF013E8BEA020BD8440EEB060BD9
:102B2000B34596BF37F802BB9B468BEA030BD944EB
:102B300048EA090B4FEA19494FEA18486FEA0B0BAC
:102B400015FA8BF52AF8025B2D0CD7E7F0B516467F
:102B50004A680C4685B0736805469A423EBF0B46EC
:102B600034461E462778616833785F4017F00107C6
:102B70003AD1FFF756FB237813F0010328D161689F
:102B8000A868A768D6E9012C891A9A4211D107EBE7
:102B90004207002300EB4202994213D102EB4101AC
:102BA000FFF78FFA2B7868606FF300032B7005B086
:102BB000F0BD37F813403CF81360744020F8134020
:102BC0000133E2E737F8134022F813400133E3E71B
:102BD000CDE9027701977368A8680093B368D4E9D8
:102BE0000121FFF7EAFADDE70131FFF71AFB33783D
:102BF000A868DB4303F0010303932378DB4303F06E
:102C0000010302930123019373680093B368D4E92D
:102C10000121FFF7D2FA2B78686043F00103C5E782
:102C20004B682DE9F04F044685B00E4615460BB1B2
:102C3000536843B923786FF3000323700023636064
:102C400005B0BDE8F08F81422ED1FFF7FFFAA54213
:102C50000646074600D105466B6820467168194450
:102C6000FFF7DFFA22680021A068C2F39D0252003C
:102C700045F014F9B368D4F808E00022D6F80490BF
:102C80000193F446AB680EEB4908114602936B685A
:102C90000393039B934231D0ACF10200DDF804B002
:102CA0000023CDF8009018E0824204D1FFF7CEFA5D
:102CB00005460746D0E70027CEE730F802AF534479
:102CC0003BF802AB1946029B33F8123003FB0A13A0
:102CD0000099038001391B0C009100990029ECD167
:102CE0004146881C13B10146A8F80030A1EB0E0143
:102CF0000CF1020C013280464910CAE76160384687
:102D00002A7833785340227863F30002227005B0AA
:102D1000BDE8F04FFFF7D3BA4B6870B505461446CF
:102D200013B11378DA0706D52B786FF300032B70F5
:102D300000236B6070BD636823B90121BDE870405A
:102D4000FFF7C9BA0846FFF781FA06462046FFF7A3
:102D50007DFA012104462846FFF7BDFA636883B176
:102D6000A3681B88DB0704D5324629462846FFF7AF
:102D700057FF0123D4E901210846FFF7AEF960604F
:102D800038B93046FFF79BFA2046BDE87040FFF7A0
:102D900096BA324631463046FFF742FFDEE72DE96C
:102DA000F04F0C4651688FB09046013105460293B2
:102DB000FFF737FAD8F804200021A868002601326E
:102DC000520045F06BF82B786E6020466FF30003DD
:102DD0002B70D8F804100131FFF723FA4146204642
:102DE000FFF7A2FA029BA768D4F804903846494638
:102DF000D3E9013A01935246AB680393019BFFF775
:102E000044FA002832D10123039A606013806B607A
:102E100023786168C3F3000200290CBF002202F08E
:102E2000010262F30003029A237098F800301278CE
:102E30005340DB0717D56B682A78003B18BF012386
:102E400063F300022A7071B14FF0FF310BA8FFF756
:102E50008AFA0BAA29462846FFF7DFFC029A214688
:102E60002046FFF7DAFC0FB0BDE8F08F01DA6E60A4
:102E7000CEE7019B03F10042013A4FEA420E3AF8D5
:102E80001230180406F1010153D5B3B2002107EB4B
:102E9000490B09F1010027F81910BC4600930BF10A
:102EA0000209C3F1100360600493CC4545D33AF89E
:102EB0001220009B02FA03F30493019B012B0AD911
:102EC0000AEB0E02009B32F8022CC3F11001CA403B
:102ED000049911430491019BAAF1020AC01A039BB1
:102EE000686000F10040013803EB400306930EF1E7
:102EF0000203099363680593059A019B934229D3C2
:102F000002F1004B009B00200BF1FF3BC3F11006C8
:102F100007EB4B0B5F4573D96FF000416B682BB12A
:102F20005A18039830F81220002A74D06FF000412C
:102F300076E05B000E469BB2A3E7BCF80060009B06
:102F400006FA03F31943049B2CF8021B26FA03F13B
:102F500089B2AAE7BBF8001000203BF8022C049BC2
:102F6000864642EA0142B2FBF3F2099BABEB030354
:102F70001E46CDE9073AB3450ED8BBF80010084409
:102F8000002838D1069BABF1020B23F802290693E7
:102F9000059B5A1E6260ADE7089BB6F8009033F8B7
:102FA000021F19FA80F90893009B994041EA1E4ECE
:102FB0001FFA8EF151431FFA81FC090CA9EB0C0C8E
:102FC000C1EB204126F802CB01EB2C40D3E739F8C6
:102FD00002CF009B0CFA03FC4CEA1E4EB6F800C070
:102FE00011FA8EF1614426F8021B090CB345EED8A4
:102FF0000844013AC4E70021D146079E8E46F5E712
:10300000BBF80020009B42FA03F1B240014390B2AA
:103010002BF802197EE7013B6B607FE7013B6360A1
:103020006368002B3FF4F4AE5A1837F81220002AD8
:10303000F4D0EDE6F0B51F464B6885B004460D466A
:1030400016464BB11378DA0706D47B68012B0BD1F7
:10305000BB681B88012B07D123786FF30003237013
:103060000023636005B0F0BD01212046FFF733F96E
:103070007368002BF6D02846FFF7E8F8054630467F
:10308000FFF7E4F8064601A8FFF741F97368B3B10A
:10309000B3681B88DB070AD52A4621462046FFF77E
:1030A000BFFD3B462246214601A8FFF778FE0123DB
:1030B000D6E901210846FFF710F8706048B901A869
:1030C000FFF72AF92846FFF7FAF83046FFF7F7F836
:1030D000C8E72A4629462846FFF7A2FD3B462A466E
:1030E000294601A8FFF75BFED0E7D0E9012103469E
:1030F000002001EB420210B5914204D31B78DB079C
:1031000048BF404210BD32F8024D44EA0040F3E7A8
:1031100030B5D0E90124002304EB4202944206D3E7
:1031200002780120D20748BF5B420B6030BDB3F587
:10313000004F04D232F8025D45EA0343EEE7002077
:10314000F4E72DE9F0470546D1B1981800264FF075
:10315000010C03EB02093746D5E90184A4F1020E04
:10316000B8F1000F0ED1B9B3C21A18462B7813F07C
:10317000010FBDE8F04714BFFF21002144F08EBECF
:103180001846E3E73EF8024F103744EA064695F842
:1031900000A0072F0AF0010A02DC08F1FF38DFE780
:1031A000B4B2BAF1000F06D0E4435CFA84FC1FFA13
:1031B0008CF4CCF3072CE4B249B100F1FF3A00F8EB
:1031C000014C53450BD0083F360A5046DFE7824694
:1031D0000AF8014BCA45F5E713441A1AC6E7BDE8D9
:1031E000F08700002DE9F341D0E9015804460021A1
:1031F00008EB450500200026104FA8450CD3237886
:10320000DB0741BF024601F100431046194641EC7D
:10321000100B02B0BDE8F08132463B465FF044FA45
:1032200002460B4635F8020DCDE900235FF0D2F9D6
:10323000DDE900235FF082F8DFE700BF0000F04027
:103240002DE9F84F44688046894615469B469DF80F
:1032500028A00B9E9CB982B1551E334615F8011F5C
:10326000184639B930230370002300F8013F801B52
:10327000BDE8F88F03F8011BF0E73046F2E7640081
:10328000ABF13A0B2046FDF7F7F907462246D8F88E
:10329000081044F0BFFD314632463819A0F1020C47
:1032A00000236745644639D930331446392B88BF2B
:1032B0005B4404F8013B3B4698429C4638D8BAF13F
:1032C000000F0AD00123A4EB010CBCF1030F02BFD5
:1032D000941C82F801A02146F3B13846FDF7F4F9B9
:1032E0005DB1284644F014FE2A18611E1346AB4215
:1032F00029D8954288BF0020044498F80030DB07A5
:1033000044BF2D2304F8013B3346621E9A421FD866
:103310000023A01B2370ABE72246BFE7248844EAC2
:103320000343B3FBF9F409FB14332CF80249B8E763
:10333000BCF800C00233BCF1000FBDD0BAF1000FE1
:10334000EAD00023BFE713F8017D01F8017FCEE743
:103350001978107803F8010B02F80119D6E7D0E9C3
:10336000023293423DBF5A1C826018784FF0FF3002
:103370007047036810B5044613B14068FDF7A4F91F
:103380002046BDE81040FDF79FB90000F8B50C4697
:103390001F46164605461020FDF76EF9054B846062
:1033A000C0E900743444C4606B60034B2860AB60B8
:1033B000F8BD00BF5F3300087333000802690A2AB2
:1033C00010B5044635D1836A013383620123A269B3
:1033D000E36263696261226F2361002A31D0616E0A
:1033E0008A423BBF501CA16E0022206738BF8A5C16
:1033F000A2613BB9E26963662261226A2367626166
:10340000626AA26163690D2B08D10A22A369934203
:10341000626103D1D4E901039847A061A369013334
:1034200006D163695A1C03D00A2B1CBF0A23A3616F
:1034300010BDC36A092A04BF073323F00703013311
:10344000C5E7D4E901039847A061DBE70369272BAF
:103450002BD0222B29D0A3F1620113291ED8174AA1
:10346000CA40D2071AD54269272A1ED0222A1CD068
:10347000722B1CD1662A06D18269272A15D0222AEE
:1034800013D0722B15D14369622B0CD18069272888
:103490000BD0A0F12203584258417047662BF0D15F
:1034A0004269722AE8D00020704701207047662BDD
:1034B000F6D0622BF7D14369722BE6E711000900C1
:1034C00070B504460D4600262069431C01D13046E4
:1034D00070BD0A2808D115B1636B002BF7D02046C8
:1034E0000126FFF76BFFEFE7FEF760FD18B12046FE
:1034F000FFF764FFE8E72369232B08D12046FFF795
:103500005DFF23695A1CDFD00A2BF7D1DCE75C2B67
:10351000DDD163690A2BDAD12046FFF74FFFE6E7DA
:10352000436E2DE9F04F044685B0A3B1036F93B904
:1035300029216030FEF7E6F82369E36163692362BD
:10354000A3696362A36E1A7822615A7862619B78DC
:10355000A36103232367002120466165FFF7B0FFC5
:10356000A36AE56A6364236BA564002B009305DA04
:10357000082384F84C30009B013305E008D0072372
:1035800084F84C30009B013B236305B0BDE8F08F0D
:1035900090B3636B83BB06236FF00042013D84F858
:1035A0004C30D4E90F30991830F811108D42ECD01E
:1035B00017D9A16B8B4207D308314900FDF777F883
:1035C000A36B20640833A363D4E90F32591CE16371
:1035D00022F81350236BCFE7013BE363236B013BDE
:1035E0002363E36B991830F811108D42F4D3CCD0DB
:1035F000022384F84C30C8E725696E1C01D10023F2
:10360000F7E72046FFF722FF8046002800F0D08130
:10361000002384F84C302369752B4ED0622B07D1E0
:103620006369722B4ED1474602260D23002511E017
:10363000722B06D16369622BF5D0662B46D1052328
:10364000D7E7662B46D16369722BF8D04546012631
:103650000C23002794F84C20002A3DD184F84C30EC
:103660003EB12046FFF7AAFE022E02D12046FFF708
:10367000A5FE23692046222B14BF4FF0270A4FF0E6
:10368000220AFFF79BFE2369534528D163699A45B7
:1036900025D120464FF00309FFF790FE2046FFF7A3
:1036A0008DFE25B1AE4904F16000FEF76EF80023EF
:1036B00004F1500604F1600B22E0012600250C23E2
:1036C0002F46C7E701260D230025C2E747460126FE
:1036D0000C23ABE7009EF1E79A42C1D055E74FF0CB
:1036E0000109DEE7924537D1013351463046019357
:1036F000FEF70FF8019B20460193FFF75FFE019B49
:103700002269511C00F04E81B9F1010F02D10A2A41
:1037100000F048814B45E5D3194604F15000FEF70F
:103720004EF801212046FFF7CBFE2046FFF78EFE24
:1037300000287FF470AF28E72046FFF73FFE21699D
:103740007B291FD13046FDF7DDFF2046FFF736FE0F
:103750007B213046FDF7D6FF21690DB17B29EBD0E7
:103760005C2940F01A8120460191FFF727FE23696A
:103770000199002F4DD001933046FDF7CAFF019B00
:103780001946E2E028215846FDF7BCFF636E00228F
:103790002169481C0FD032BB3A290CD07D290AD0B0
:1037A000212920D160697238012821D8A0693A28DE
:1037B00001D07D281CD1D4E91921881810F8010CFA
:1037C0003D2807D1D21A19443046FDF7F5FE636E45
:1037D000013B636658462921FDF794FF2C2158468A
:1037E000FDF790FFB4E721F020005B280CD10132F7
:1037F000C9B25846CDE90132FDF784FF2046FFF7F4
:10380000DDFDDDE90132C3E75D2808BF02F1FF32CB
:10381000EEE7782B06D85B2B0BD8222B74D053D82D
:103820000A2B4FD0A3F13001072900F2AF80032308
:10383000A5E0A3F15C021C2AF4D801A151F822F002
:1038400009390008253800082538000825380008FF
:1038500025380008B5380008E13800082538000888
:103860002538000825380008F138000825380008F8
:1038700025380008253800082538000825380008B4
:103880002538000825380008E938000825380008E0
:103890002538000825380008DD38000825380008DC
:1038A000E5380008F5380008ED380008253800082C
:1038B0005D390008072194F84C300C2B69D1304653
:1038C000FDF727FF002316E7552B13D0AAD8272B87
:1038D0001AD04E2BA6D123480AF0B0FD0D21EAE7FD
:1038E0000821E8E70921E6E70A21E4E70B21E2E7FE
:1038F0000C21E0E794F84C200D2A07D15C213046DA
:103900000193FDF706FF019B1946D4E7752B0CBF09
:1039100004230823002116E0204603930191FFF7BA
:103920004DFD226910460292FEF75EFB002800F072
:103930004F810199029A090110460191FEF794FB0B
:103940000199039B0144013BE6D2481CBAD0B1F572
:10395000881FB0D3012384F84C30B3E70223D9E7A2
:103960007F960608889606082046CDE90113FFF7E2
:1039700025FD22690199303A029B02EBC10162697F
:10398000303A072AE1D8013BEED1DEE75C21019312
:10399000F2E6FF29DED80D2BDCD1C9B23046FDF7A7
:1039A000B1FE8FE74B453CBF032284F84C20B3E6C1
:1039B0002846FEF705FB054620691DB95F2801D0A2
:1039C0007F283ED9092304F15005C1B284F84C3058
:1039D0002846FDF797FE2046FFF7F0FC2069421CC1
:1039E0001BD128467D4FFDF77EFE0025064657F881
:1039F000041B304644F09AFA00281CD10F35EDB272
:103A0000122D84F84C507FF4C0AD754BD3F81032B2
:103A1000002B0CBF11230F23EBE5FEF7D1FA40B9C1
:103A200020695F2805D07F2803D8FEF7D3FA002845
:103A3000D7D0217CCCE7FFF6A8AD0135242DD6D117
:103A4000A3E5FEF7C7FA68B321692E2935D10B2308
:103A500084F84C3004F150060B273046FDF759FE30
:103A60002046FFF7ABFC2069431C3FF48EAD002DD0
:103A700039D120F02003452B35D16521304684F81B
:103A80004C70FDF746FE2046FFF798FC21692B2974
:103A900001D02D29E7D13046FDF73BFE2046FFF748
:103AA0008DFCE0E723692E2B04D16069FEF792FAC2
:103AB0000028C9D100264B4D35E00A23302984F86F
:103AC0004C30C7D1656945F02005A5F16203162B7E
:103AD00097BF454D0125DD40ED4398BF05F0010539
:103AE00085F00105B6E7FEF76BFA28B121692E29AA
:103AF0000DD184F84C70CEE72069FEF76BFA0028F0
:103B0000F4D123692E2BF1D05F2BC7D03DE521F0F6
:103B100020034A2BBFD1ECE7652F01D0632F00D1E2
:103B20000135013601352F7817B12369BB42F3D136
:103B30002046FFF743FC0FB901235AE5212F07D197
:103B400023693D2BF8D12046FFF738FC3A2350E596
:103B50002E2F0FD123692E2B02D163692E2B01D07A
:103B60005D2346E52046FFF729FC2046FFF726FCAB
:103B70000E233EE50335334615F8027C632F0FD044
:103B8000652F0DD0194AD35C03F0FD0284F84C3048
:103B9000552A01D0592B13D1636B01336363F4E4CD
:103BA00015F8012C01362169914207D12046FFF713
:103BB00005FC3346652FE5D00235DDE7632FFAE7D4
:103BC000562B02D0582A7FF4E0AC636B013BE5E74B
:103BD0000123014684F84C306DE600BF409706088B
:103BE000A40000243A960608012040001197060818
:103BF0007FB501AD0646742085E80E00FCF73CFD5C
:103C00000446034695E8070043F8046B002583E863
:103C1000070001236FF001021420C4E90A320A22CE
:103C2000C4E90C55C4E90E23FCF726FD20212064CD
:103C300004F15000FDF7E9FC294604F16000FDF7AE
:103C4000E4FC236C204625671D802561C4E90555E9
:103C5000FFF7B4FB2046FFF7B1FB2046FFF7AEFBB2
:103C60002046FFF75DFCA36C2046012B1CBF0723F9
:103C700084F84C3004B070BD30B585B0054601AC59
:103C80002046FFF783FB284694E80E00FFF7B0FFBD
:103C900005B030BD30B585B00446014601AD2846BB
:103CA00021F04EFB204695E80E00FFF7A1FF05B07E
:103CB00030BD10B5044690B1C3684068984704F120
:103CC0005000FDF7CBFC04F16000FDF7C7FC206C51
:103CD000FCF7FAFC2046BDE81040FCF7F5BC10BD2F
:103CE000D0E90432013B036152F8230070470369B5
:103CF000C9431944436953F821007047F8B5446A31
:103D000006460D46BCB1D4E900132B448B4223D99F
:103D100005F10803002220461944FCF7D3FC0246B3
:103D2000B8B9616820460831FCF7CCFC63682360B1
:103D3000336A63603462802D2F4638BF802707F1D5
:103D40000800FCF799FC002307600446436070629A
:103D500002E023682B44236060680834054444F87B
:103D6000045C2044F8BD38B50D460C211446FFF71D
:103D7000C5FF4FF49D720560C0E9012438BD38B518
:103D8000D0E9033204460D469A4208D31033406905
:103D90009900FCF78CFCE36860611033E360D4E9C0
:103DA0000432591C216142F8235038BDF8B504464D
:103DB0001D460F461646D0E90003834208D3103053
:103DC000C100A068FCF773FC2368A0601033236077
:103DD000D4E90103421C626003EBC00253F83010C7
:103DE00067F3170143F83010D6705560F8BD10B472
:103DF0008469CAB20023616C5DF8044BFFF7D6BF3B
:103E000010F001021CD110F003030CD000F00F03DE
:103E1000062B15D00A2B11D100090E3803288CBFB0
:103E200000200120704770B102793A2A08D02D2A6B
:103E300008D18068B0FA80F040097047104670479A
:103E40000120704718467047C20702D540F00100B4
:103E50007047830710D0030900F00F00062803D134
:103E6000D80040F002007047A3F10F00022809D8E3
:103E7000064B53F82000704730B103793A2B03D139
:103E800080687047024870470248704744980608A7
:103E900060BD06083CC4060838B505460C46FFF769
:103EA000AFFF38B12846FFF7CFFF0BF0B7FA031B7F
:103EB0005842584138BD2DE9F04105460F46144699
:103EC000164696B93146204612F09AFE014600F198
:103ED0000808ACB90A4628463946FFF744FF0146B0
:103EE0002846FFF74CFF012008E0013E28463146F6
:103EF000FFF7FDFEFFF784FF0028E2D1BDE8F08167
:103F00002846013CFFF7ECFE0646FFF79DFF48F808
:103F10002400002EDDD0B307DBD1686A00F108036E
:103F20009E42D6D3426813449E42D2D273681B0A83
:103F30000233A2EB83034360CBE70000F7B5866949
:103F400005460F4696F84C20092A1FD1D6E91510D0
:103F5000FDF7A6F9902F04460ED1C100002205F10D
:103F6000280041F002010AF015FE28B14268D3078B
:103F700020D542F0010002E0200140F0020001469D
:103F8000284603B0BDE8F040FFF7F9BE0A2A07D182
:103F900000223346D6E9151008F024FB0246E6E776
:103FA0000B2A0CD1009600230122D6E9151008F047
:103FB00097FB0246716C2846FFF7D5FEDFE70C2A17
:103FC00013D1D6E915100A2906D8FDF769F930B1E1
:103FD000000140F00600D2E7FDF734F9F7E7D6E933
:103FE0001521074810F0F0FEE3E70D2A04D1D6E9C9
:103FF000151010F0D5FFDCE7120142F00A00BEE711
:10400000F4C2060810F0010204D040F0010008607C
:1040100001207047A8B110F003030FD102793A2AAA
:104020000ED1836813F001000B60F1D19A0708D11B
:104030001868044BC31A58425841704710467047DD
:104040001846704720B606080021FFF725BF01215A
:10405000FFF722BF2DE9F04F2D2A1D4600F128035E
:104060000446884616462DED028B08EE103A85B0C0
:104070000DD10021FFF73BFEC8B1870702D10379BC
:10408000922B14D005B0BDEC028BBDE8F08F922AC4
:1040900020D10021FFF72BFE014640B1880706D151
:1040A0000B79952B0AD1013D2046FFF719FEA6F1A9
:1040B0001E03012B6FD8A9462F461AE0962BF6D186
:1040C0002046FFF70DFE4B6823F0FF0343F09203F9
:1040D0004B60D7E7962A08BF0135E8E71E2E4DD181
:1040E000FFF7B5FFC8B95046FFF7AEFF002808BF7D
:1040F0005F4607F1FF3BB9F1000F0ED009F1FF3920
:1041000020464946FFF7F3FD226961698246D21BCA
:1041100041F82200B9F1000FE0D10021594535D115
:104120006D1A012DAED0A6F12303022B02D92A2E3F
:1041300040F08280691E2046FFF7D9FD01A9FFF7F4
:1041400061FF002800F09181232E42D0242E43D01D
:10415000252E0CBF4FF018094FF02209AF1E002F7B
:104160003DDA002D40F07681019AD30740F1778146
:1041700042F001012046FFF702FE83E7FFF764FFEC
:104180000028CAD15046FFF762FFAFE72046013151
:10419000FFF7A6FDC2E7202EC5D100212046FFF77C
:1041A000A6FD0746FFF750FF80B93846FFF74FFFDF
:1041B0000028B8D0FA212046FFF792FD204605B02E
:1041C000BDEC028BBDE8F04FFFF7D9BD4FF48D7108
:1041D000F1E74FF01609C1E74FF01709BEE739467E
:1041E0002046FFF784FD02A9FFF70CFF78B1B9F173
:1041F000220F07D04846013FDDE9011209F024FFF4
:104200000190ACE702980EF0BBFA0028F2DA962E85
:1042100040F03881D4E9012303EBC20313F8153CC5
:104220002D2B38D12A4641462046FFF744FE90B355
:104230006368023B636025E7A6F12603022B45D89D
:10424000691E2046FFF753FD01A9FFF7DBFE00289A
:1042500000F03581A5F10209B9F1000F81DD09F106
:10426000FF312046FFF743FD02A9FFF7CBFE90B1D7
:1042700049462046FFF73BFDC0F3071043280AD00C
:10428000452808D02538C7B202980EF079FA1A2FBF
:104290000FD8002811DAA91C20468900FFF72EFD4F
:1042A000074646EA052300F10801C0F80080436094
:1042B000F9E01E2F01D90028EDD03846A9F10209F6
:1042C000DDE9011209F0C0FE0190C5E7292E18D1E1
:1042D00000212046FFF70BFD01A9FFF793FE002800
:1042E000D9D001212046FFF702FDC0F30710019944
:1042F000342816BF40380220C0B209F00BF90190F3
:104300002FE7052E67D100212046FFF7F0FC074676
:104310000028C0D010F0030B04D1436803F0FE0363
:10432000562BB8D001212046FFF7E1FC00F00F0327
:10433000022BB0D1BBF1000FADD13B792C2BAAD110
:10434000BB6803F00F02022AA5D11B09482BA2D19A
:10435000FB68002B9FD09A079DD11A79302A9AD1F9
:10436000D3F808A04FEA10195046FFF749FD68B985
:10437000544955480DF006F8A16905465B463A6870
:1043800009680DF0D5F82846FCF74EF950464FEA7B
:10439000C901FFF759FD0746012241F0020118EE5D
:1043A000100A0AF0F7FB47604846FDF738F8027834
:1043B00020465F2A08D10025FFF792FC20460826F8
:1043C000A846FFF78DFC72E6FFF78AFC51462046AF
:1043D000FFF7D5FC5FE72C2E47D101212046FFF7E0
:1043E00086FC00F00F030246022B7FF454AF00213D
:1043F0002046FFF77CFC00283FF44DAF87077FF491
:104400004AAF0379322B7FF446AF11098768002247
:104410002E48C90041F002010AF0BCFB00283FF41D
:104420003AAF02AA3909406808F09AFF029B002BB4
:104430003FF431AFD90707D49A077FF42CAF19683E
:10444000234A91427FF427AF039A002A7FF423AFD7
:10445000019386E62046013DFFF742FC81E62946AE
:104460002046FFF780FC014684E6922E7FF4CFAE13
:10447000D4E9012303EBC20313F8053C2D2B7FF491
:104480000AAF01E0062E18D12A4641462046FFF722
:1044900012FD00287FF4F6ADFDE6013D2046FFF752
:1044A0001FFC41F82500002DF7D1962E03D1394687
:1044B0002046FFF764FC394680E6362EE4D0332EE2
:1044C000DDE700BFD097060810B20608509806082E
:1044D00020B606080346006830B508B9106030BD44
:1044E000840702D001201360F9E74468E5B28D42E9
:1044F000F8D108301060200AF1E700002DE9F04FF4
:10450000AF4B97B000240D46019005A80092CDE96D
:104510000731AC49CDE90544FCF74CF840234FF492
:104520000070CDE90934FCF7A7F820230B90802018
:10453000CDE90C34FCF7A0F82146CDE90E0513A80F
:10454000CDE911440AF0F0FA009B002B49D0022B70
:104550000CBF3F2222460027DFF880A20023696CAF
:1045600009A8FFF723FC0A9C002C00F06681013C9F
:104570000B99954E01EBC40351F834100A94DA7884
:10458000C1F317099149632A5B6811F802B0904999
:104590000BF00F08895C88BF41F4807106EB41067F
:1045A0000BF0300110291ED020294BD0002F00F035
:1045B0001781B8F1020F40F0F580012B18D00021CF
:1045C0001BF0010F03F1FF3006D074880AEA0404DF
:1045D000B4F5805F08BF5808012800D161B10346D7
:1045E000AEE03D22B7E72BB906EB4306984505D868
:1045F0000127B8E7002FF7D10027B4E7374636F890
:10460000021B01EA0A00B0F5805F0DD195F84C005D
:10461000C1F30B01884213D109A81146FFF78EFCA4
:104620002846FEF77DFFE7E70133434503D24946BD
:1046300009A8FFF7BBFB398809A8FFF7D8FBDBE720
:104640000133D3E78FB103F10041013936F811107E
:104650000AEA0101B1F5405F1DD1002109A8CDE9A9
:104660000232FFF78CFBDDE9023206EB430498458A
:1046700025D8009B002B48D1002406EB480827468C
:10468000B04562D1012F40F081801BF0400F7DD0FA
:104690000026314674E0012BAAD995F84C30072B3F
:1046A00040F0F9804B494C480CF06CFE0446002366
:1046B0006A6C29680CF03CFF2046FBF7B5FF2746E3
:1046C00034F8021B01EA0A00B0F5805F1BD1C9B2C1
:1046D00095F84C00884212D1092807D1114609A843
:1046E00003930292FFF72AFCDDE902232846CDE975
:1046F0000232FEF715FF029B039A0133B7E7002B46
:104700003FF476AFC9E7013391E7052AB4D1002120
:1047100009A8FFF7ECFA0028AED1012109A8FFF79C
:10472000E6FA830700F0C58000F00F000228A3D04E
:1047300009A8FFF7D5FA09A8FFF7D2FA0023082243
:10474000494609A8FFF786FC56E738F8023D03EA18
:104750000A01B1F5805F05D1DBB2092B90D101349C
:1047600001378DE7214609A8FFF7C1FA00B10137EB
:10477000013485E7FFF7B4FA0136002818BF014677
:10478000A64209A8F6D1FFF7FAFA35E71BF0800F29
:1047900006D0002109A802920134FFF7F0FA029A2C
:1047A0002346CDE7012B3FF423AF13F001013FF483
:1047B00007AFB8F1030F7FF470AF012100E700BF2E
:1047C000B33C00086FD200083499060884980608A4
:1047D000BC9C0608DC9706083CB0060800F0FFFF0A
:1047E00008EA030101F0010136F8114004EA0A0069
:1047F000B0F5805F17D1C4F30B0495F84C00A042CC
:1048000003F101040DD129B9114609A80292FFF75D
:1048100095FB029A28460292FEF782FE2346029AF0
:10482000DEE72346C5E6494609A80133FFF7BEFA8D
:10483000214609A8FFF7DBFA95E613A80AF088F9E4
:10484000129850B1416822460831FBF73BFF129B9A
:104850005A681A60119A5A60119395F84C30002BDF
:104860007FF41BAF0D9B002B3FF417AF0E9B0B98F3
:104870001B681093FBF728FF0E98FBF725FF01201C
:10488000FBF7A0FE019BDDE9100183E80300184659
:1048900017B0BDE8F08F022B01D10A4903E7042BC2
:1048A00002D109490948FFE6052B0CBF084909490F
:1048B000F8E700283FF4E0AE03793A2B3FF438AF35
:1048C000DAE600BFEE9706081598060810B206084B
:1048D000289806083D980608406810B500B910BD34
:1048E0004468FBF7F1FE2046F8E70000F8B50546FE
:1048F00030200E461746FBF7D8FE072D04460570FC
:10490000C66001D0012D0FD1B368C3F30F13A3828A
:1049100008F00EF90423206120202783E384FBF7AD
:10492000ABFEE0622046F8BD014B5B5DEFE700BFE8
:104930006C9D060810B50446C06AFBF7C5FE20460C
:10494000BDE81040FBF7C0BE30B500220446058D1F
:10495000954201D8002030BDE36A03EBC2004368F2
:104960008B42F8D00132F3E770B504460D46164687
:10497000FFF7EAFFC0B9E38C228D9A4208D30633D1
:10498000E06AD900FBF793FEE38CE0620633E38430
:10499000238DE26A591C02EBC300218502F83360C3
:1049A000002345604370438070BD034618465B6832
:1049B000002BFBD1FFF7C8BFF8B544680E462CB9F1
:1049C000F8BD042BFCD105230370F9E725462846E2
:1049D0006D68002DF4D077683946FFF7B5FF0028E1
:1049E000F5D00378043B022BEAD806253570002267
:1049F00039462046FFF7B8FF0378002BE1D1057058
:104A00006468F4E7036A1B8B012B1EBFC3685B1845
:104A1000C3607047836A10B504469B6F406A98472D
:104A2000238B226A0133918C9BB29942238338BF36
:104A3000938410BD038B013B10B503830446836A46
:104A4000406AD3F88030984720460121BDE81040E5
:104A5000FFF7D8BFF7B51E4659B111F0030511D1C4
:104A60004F68FCB294420DD13F0A01F10804BD42E7
:104A700001DB03B0F0BD54F8041B01350190B047D1
:104A80000198F4E7334603B0BDE8F04018472DE93C
:104A9000F04F04460D4698462DED028B08EE102A85
:104AA00083B01BB1CB8A43F00803CB8218EE103AD7
:104AB000EB83236ADA8A42F03002DA821B78002B19
:104AC0004CD1A36A18EE102A2946606AD3F8B06068
:104AD0004346B44603B0BDEC028BBDE8F04F6047DF
:104AE000DB6A03EBC60B13F83630053B012B1DD8F0
:104AF0004FF0000917E0EB6A03EBC90213F83930F5
:104B0000062B0ED1DBF804105368994209D1A36A31
:104B10000AF1010ABBF802201B69606A1F460023E4
:104B2000B84709F101092B8D4B45E4DC0136236AB6
:104B30001A8DB242D4DCBAF1000FC2D0A36A524639
:104B4000CDF800802946D3F8B46018EE103A606AB8
:104B5000B04703B0BDEC028BBDE8F08F0026B24633
:104B6000E5E70000F8B50E4611461A460023044654
:104B700085780769837003610E4BFFF76BFF6368ED
:104B8000BBB9618A51B1228A42B9A36A606AD3F87B
:104B90009C309847A36A606A1B6C9847238A314609
:104BA000628A2046FFF773FF003D276118BF012589
:104BB000A570F8BD41550008024B9D228968FFF79A
:104BC00049BF00BF05720008024B6B228968FFF7DE
:104BD00041BF00BF116F0008836A002110B5044671
:104BE000D3F88430406A9847A36A606A10211B6B2F
:104BF0009847A36A606A0121D3F8C83098472046D5
:104C00000321BDE81040FFF7FDBE38B5836A0446B6
:104C10000022406A5B6C9847A36A606AD3F8BC5074
:104C200000231A461946A8472046BDE83840FFF73A
:104C3000D3BF836A002289681B6D0909406A18473F
:104C4000836A8968DB6B406A184710B504460846DA
:104C500011461A46FFF74AFE236A43600023836029
:104C6000E3690BB9E06110BD1A469B68002BFBD1CC
:104C70009060F8E770B5437805460C46012B06D1E5
:104C8000036A0A4602211B8BFFF7DFFF2061A2683F
:104C9000284621694C23BDE87040FFF763BF70B51B
:104CA0001346427805460C46012A04D10A460721DC
:104CB000FFF7CBFFA061A66928464623E26831468C
:104CC000FFF750FFB08A70BD2DE9F04F85B0054663
:104CD0000C4600AF11B90121116015E011F0030875
:104CE0001BD10B79682B07D1CB681B0913608C682B
:104CF000002CF0D04FF0010804F00F03022B0FD16D
:104D00002109B8F1000FE7D0AB6A0022686ADB6ABC
:104D100098471437BD46BDE8F08F4FF00008EBE729
:104D2000B8F1000F02D1A3681B091360666804F193
:104D3000080A360AD14606F1FF3B0AEB860659F807
:104D4000040B0009FCF760FBB1458344F7D10BF17C
:104D5000070323F00703ADEB030D6B4699465AF8A2
:104D6000040B07F10C013B600009FCF764FBFA68D7
:104D7000014648467A6043F04DF87A68B2453B6890
:104D8000914418D159461846FCF78AFAAB6A014695
:104D90000022DB6A686A9847B8F1000FB9D00C347A
:104DA000A642B6D054F8041B0022AB6A0909686A0F
:104DB0001B6D9847F4E74FF02E0209F8012BCEE760
:104DC00031B101F003038268134304BF0B688360B1
:104DD0007047000038B543680D46044611464BB98C
:104DE00005480CF0CFFA294660602046BDE83840FF
:104DF000FFF7E6BF38BD00BF10B20608014AFFF753
:104E0000E9BF00BF739D06080B79092B4FF6FF73AE
:104E100070B508BF858A044618BFC58A9D4202D175
:104E2000064AFFF7D7FF218B628BA36A8A1A606A52
:104E300029465B6FBDE87040184700BF809D06089B
:104E400070B5144605460E46127883B132B1032A76
:104E500004D0104ABDE87040FFF7BCBF032661686C
:104E60002670286AFFF7A1FD00B1067070BD62B917
:104E7000012321462370006AFFF79EFD2378012B52
:104E8000F4D1054A31462846E4E7062AEED0034A23
:104E9000E0E700BF999D0608A69D0608B39D060899
:104EA00013B50446B9B101F00F03022B0FD10A0963
:104EB0001046019209F0A4FC0028019A05DA07497E
:104EC00007480CF0F5FA6060002002B010BD054AFA
:104ED000FFF780FFF8E70846F7E700BFBA9D06082E
:104EE000C4B20608BF9D060810B404460B46006A0B
:104EF0006278012A03D15DF8044BFFF735BDA16A42
:104F00000246606A10315DF8044B02F03FBE0000BB
:104F100070B505460C4600292DD0CA0706D5836A10
:104F200049105B6B686ABDE8704018478B0716D064
:104F300004F00F040909022C0AD0062C0CD0062913
:104F400019D0836AC9B2406A1B6BBDE8704018472C
:104F5000BDE87040FFF7C8BF836A9B6BE2E7836AD6
:104F60000968DB68406A98472279034B2146284646
:104F700053F82230D7E770BD849F06082DE9F74F1C
:104F800005460C4616461F462046FFF75DF840B121
:104F90006EB9AB6A39469B6E686A03B0BDE8F04FE4
:104FA00018472046FFF753F820B1002EF1D103B087
:104FB000BDE8F08F002C48D0A30746D163684FEAC4
:104FC000132BDBB21E2B18D1DEB1083404EB8B0B94
:104FD000A345ECD03B46324654F8041B2846FFF765
:104FE000CDFFF5E743465AF8041B2846019209F124
:104FF0000109FFF7C3FF019A11E01F2B1FD1002EFB
:10500000E3D0D5F80C8004F1080A4FF0000986F0CF
:10501000010208F10103EB600BF1FF330093009BE9
:105020004B45DFDC0BF101013B463246284654F884
:105030002110FFF7A3FFAB6A41469B6AACE7202B28
:1050400003D1A46886F001069EE721462846FFF7B3
:105050005FFFAB6A3A463146DB6E686A03B0BDE873
:10506000F04F1847026A38B5127804460B46072AF3
:1050700006D0022A04D0154ABDE83840FFF7AABE80
:105080009D6885B9A36A1021606A1B6B9847A36A63
:105090000021606AD3F8C830984720460121BDE856
:1050A0003840FFF7AFBCAB070BD12B79AF2B08D142
:1050B0002046A968FFF72CFF2046BDE83840FFF7DF
:1050C0008BBD29462046FFF723FFE0E7CF9D06086A
:1050D00070B5437804461546CE68012B06D1036AA5
:1050E0000A4629461B8BFFF7B0FD706100237169EA
:1050F00020461A46FFF7CBFCF1682046FFF708FF71
:10510000062D05D1A36A0021606AD3F88430984740
:10511000A36A0121606AD3F8B8500023AC461A464E
:10512000BDE87040604738B505460C46C968FFF7D2
:10513000EFFEA1682846BDE83840FFF7E9BE0B79CD
:10514000342B70B504460D4610D18968FFF7E0FE98
:10515000ED68AD6885B9A36A1021606A1B6B98473A
:10516000A36A04220221D3F89C301AE0836A10213A
:10517000406A1B6B9847ECE7AB071FD12B799A2B42
:1051800013D1A36A1021606A1B6B9847A968002994
:10519000E6D02046FFF7BCFEA36A04220321D3F821
:1051A0009C30606ABDE8704018479B2B06D1A96807
:1051B0002046FFF7ADFEEB689968E8E729462046F0
:1051C000FFF7A6FECCE710B504468968FFF7A0FEFE
:1051D0000021A36A606ADB6CBDE81040184700003C
:1051E0002DE9F7438D68044616465DB9002A75D04F
:1051F000836A02222946D3F89C30606A03B0BDE876
:10520000F043184715F0030740F08A802B79372BBD
:1052100013D132B1836A02220121406AD3F89C3053
:10522000984720462946FFF773FEA36A606AD3F8C1
:10523000A03003B0BDE8F04318479F2B70D1EB6856
:105240001A79A12A5AD1A22101AA03F10800FFF775
:1052500041F9A968804621B38B0722D10B79372BFE
:105260001FD136B1A36A411C0222606AD3F89C3078
:105270009847A9682046FFF74BFEA36A4FF0010943
:10528000606AD3F8A0309847474510D1B9F1000FB4
:1052900024D1A36A0322791C606AD3F89C30984712
:1052A0001CE020464FF00009FFF732FEECE7019BBF
:1052B00053F82710A9B18E0713D10E79A6F1370044
:1052C000464246412046FFF723FEB9F1000F11D0B8
:1052D0004EB9184A29462046FFF77CFD03B0BDE8C9
:1052E000F0830026EEE7A36A606AD3F8A0309847FF
:1052F0000137C9E7002EFBD00F4AEBE7AB685BB183
:105300009A0709D11B79372B06D10422294603B00D
:10531000BDE8F043FFF7DCBE052229462046F6E74C
:1053200029462046FFF7F4FDA36A03220121D3F8A2
:105330009C3062E7DA9D0608EB9D06080122FFF724
:105340004FBF70B50D46C9680446FFF7E1FDA96877
:10535000A36AC1F30711606AD3F89430342916BFE9
:1053600040390221C9B2BDE870401847F8B54F680E
:105370000C46002689683F0A0C340546FFF7C8FD35
:1053800002360834B74200DCF8BD54F8041C284645
:10539000FFF7BEFD54F8081CAB6A0909686AD3F828
:1053A00098302539C9B29847EAE72DE9F0414E68AF
:1053B0000C4601278968A6F10D080C34360A05460B
:1053C0005FFA88F8FFF7A4FDB74201DBBDE8F08182
:1053D00054F8041B2846FFF79BFDAB6A4146686AF8
:1053E000D3F8983001379847EEE72DE9F0414E6841
:1053F0000D4689680446360A0127FFF789FD032E0A
:1054000089BFD4F80C804FF0000808F10103E36075
:105410007B1C9E4222DC032E55DDE568606A6B1C16
:105420002946E360A36A9B6E9847A36A4146606A77
:105430009B6A9847A36A0121606A9B689847A36AA0
:10544000606A1B6E9847A36A606ADB6D9847A36A1F
:105450002946606A9B6ABDE8F0411847023729690E
:105460002046FFF755FDB74207DAA36A606A5B6D15
:105470009847A36A606A5B6E9847E968A36A01F07F
:105480000F02606AD3F898300A2A11D1C1F30711CC
:10549000262916BF35390621C9B29847B74205DA21
:1054A000A36A42460021606A1B6F98470835AFE740
:1054B0000A79852A01D13221EFE78A680AB90721E2
:1054C000EBE73321E9E7BDE8F08110B504468968D0
:1054D000FFF71EFD0321A36A606AD3F89430BDE88C
:1054E000104018472DE9F0474E680446D0F80C806C
:1054F00001F108055FFA86F90027360AA9F11E03B3
:10550000D3F1000949EB030908F10103C360B74275
:1055100006DBA36A4146606A9B6ABDE8F04718470C
:10552000013755F8041B2046FFF7F2FCB742F0DACA
:10553000A36A42464946606A1B6F9847E7E7000046
:1055400001F00F03022B70B504460FD00B79492BE5
:1055500001D04F2B02D10123A37070BD4A2BFCD088
:10556000502BFAD0482B0DD10D696DB9A378002BC3
:10557000F3D1638A002BF0D020461D4ABDE870406D
:10558000FFF728BCCD68F0E7A37843B3238A8E6881
:1055900001339BB2012B23820ED1618AD4E9090326
:1055A000D1B1D3F89C3000229847A36A022200218F
:1055B000606AD3F89C30984729462046FFF7A8FC3C
:1055C000A36A606A31099B6B9847A36A606AD3F843
:1055D000A030BDE8704018471B6C9847E5E7638A28
:1055E0002946204601336382BDE87040FFF790BC36
:1055F000F89D06082DE9F041C5680446D1F80C80F5
:105600000E46AB1C0022D8F808106F1CC3602B4656
:10561000FFF7B4FCB1682046FFF77AFCA36A39466D
:10562000606A9B6E9847A36A2946606A9B6A98479E
:10563000A36A606A4FF0FF319B689847D8F80C1056
:105640002046FFF765FCA36A3946606A9B6ABDE89D
:10565000F04118472DE9F047C6680446D0F814A079
:105660000D46B31C06F10108B0F81A90C360038B15
:105670008682A0F8168043838868FEF7E5FCF8B9B7
:10568000E768A8687B1CE360FEF7E1FC20B9A36A29
:105690004146606A9B6E9847A36A3946606A9B6A76
:1056A0009847E9682046FFF733FCA36A4146606AE1
:1056B0009B6A98473B460122A9682046FFF75EFC9B
:1056C00029692046C4F814A0A4F81A90FFF720FC1A
:1056D000A36A3146606A9B6ABDE8F04718472DE926
:1056E000F347C66804460D46731CC3608868FEF71E
:1056F000ABFC0246E8B9E7682046A9687B1CE3607A
:105700003B46FFF73BFC2046E968FFF701FCA86831
:10571000FEF79DFCD8B92B690BB96B6923B1A36A5D
:105720003146606A9B6E9847A36A3946606A9B6AF5
:10573000984701AA712105F110000027FEF7CAFE63
:1057400081464F450BD169692046FFF7E1FBA36A0B
:105750003146606A9B6A984702B0BDE8F087019BBA
:1057600053F82780D8F80800FEF76EFC0246F8B917
:10577000D4F80CA02046D8F808100AF10103E36021
:105780005346FFF7FBFB2046D8F80C10FFF7C0FB91
:10579000D8F80800FEF75BFC0028D8D1A36A314690
:1057A000606A9B6E9847A36A5146606A9B6A9847F5
:1057B0000137C6E770B58D6804463DB9836A29464E
:1057C000D3F8C430606ABDE870401847AB070ED10B
:1057D0002B795E2B0BD1A968FFF79AFBE96820466D
:1057E000FFF796FBA36A0221D3F8C430EAE7294603
:1057F0002046FFF78DFBA36A0121D3F8C430E1E70F
:1058000010B504468968FFF783FBA36A606ADB6D05
:10581000BDE8104018472DE9F0414E6801F1080439
:105820000546360A04EB8607BC4208D1AB6A31460E
:10583000686A0022D3F89C30BDE8F041184754F85C
:10584000041B2846FFF764FBEEE78968034610B4A3
:1058500041B9826A406AD2F89C400A4623465DF804
:10586000044B18474A68120A022A0BD1CA684AB187
:10587000940707D11279AC2A04D106225DF8044BB3
:10588000FFF726BC18465DF8044BFFF7C4BF4B6812
:105890002DE9F04105460E461F0A01F108080024D3
:1058A000BC4201DBBDE8F08158F8041B2846FFF735
:1058B0002FFB6B683BB10234284656F82410BDE834
:1058C000F041FFF77DBA0134EAE710B50446FFF76F
:1058D000DEFF2221A36A606AD3F89830BDE8104049
:1058E000184770B58D68044645B9836A0122294678
:1058F000D3F89C30606ABDE870401847A9071ED1F4
:105900006B68DAB2922A1AD11B0A022B0CD1EB680F
:1059100053B19A0708D11B79AC2B05D12946032234
:10592000BDE87040FFF7D4BB29462046FFF7AFFF24
:105930006968A36A0122090AD3F89C30DAE729468C
:105940002046FFF7E5FAA36A0122D3F89C301146FE
:10595000D0E70000184B2DE9F041D3F8107204464F
:105960000D463FBBC66801228968731CC36033467D
:10597000FFF704FBA36A1F2101225B69606A984755
:10598000E96851B12046FFF7C3FAA36A3A460121FC
:10599000D3F8B8503B46606AA847A36A0121606A01
:1059A000D3F8C4309847A36A3146606A9B6ABDE861
:1059B000F0411847BDE8F081A4000024026A2DE9F7
:1059C000F04112780446072A04D01B4ABDE8F04192
:1059D000FFF700BA8D685DB9836A1021406A1B6BBE
:1059E0009847A36A606AD3F8C030BDE8F041184711
:1059F00015F003021DD12B791B2B1AD1C668EF6855
:105A0000731CB968C3603346FFF7B8FAA96820462B
:105A1000FFF77EFAA36A606AD3F8C0309847A36A9A
:105A20003146606A9B6A9847F9682046FFF770FA2A
:105A3000D7E72946F9E700BF169E060810B4026AA8
:105A4000044640780B46012804D110465DF8044B0B
:105A500002F08DB8A16A606A18315DF8044B02F05B
:105A600095B800008B072DE9F14F04460D46164608
:105A700011D001F00F03022B16D1D7074FEA1111F5
:105A800004D401B0BDE8F04FFFF7D8BF01B0BDE8C6
:105A9000F04FFFF729BA4968CBB22D2B7BD00BD83A
:105AA000062B0DD02C2B12D04E4A2946204601B091
:105AB000BDE8F04FFFF78EB92E2B7FD09D2BF3D191
:105AC000002EF1D105F10802090A20467BE0022AE6
:105AD00002D0A968FFF71CFAEF68002FE4D017F096
